:10095D0000C000F900A400B000990092008200F8D8
:04096D000080009076
:10094000E4FFFEE4FDFC0DBD00010CED640A4C70FB
:0C095000F50FBF00010EBE27EABF10E744
:01095C002278
:1008F60078087C007D007BFF7A09795D7E007F1495
:100906001208D0E4FBFA120940EB25E02408F808A7
:10091600E6F580900000AF82EF25E02408F808E6AF
:10092600F5A0120940A3E582640A458370E80BBB73
:0909360000010AEB640A4A70CDCD
:01093F002295
:0300000002097181
:0C097100787FE4F6D8FD75811B0208F6C3
:10080000E709F608DFFA8046E709F208DFFA803EDA
:1008100088828C83E709F0A3DFFA8032E309F608C7
:10082000DFFA8078E309F208DFFA807088828C832F
:10083000E309F0A3DFFA806489828A83E0A3F608E3
:10084000DFFA805889828A83E0A3F208DFFA804CBD
:1008500080D280FA80C680D4806980F28033801094
:1008600080A680EA809A80A880DA80E280CA8033FD
:1008700089828A83ECFAE493A3C8C582C8CCC58375
:10088000CCF0A3C8C582C8CCC583CCDFE9DEE78045
:100890000D89828A83E493A3F608DFF9ECFAA9F0C4
:1008A000EDFB2289828A83ECFAE0A3C8C582C8CC1A
:1008B000C583CCF0A3C8C582C8CCC583CCDFEADE33
:1008C000E880DB89828A83E493A3F208DFF980CC95
:1008D00088F0EF60010E4E60C388F0ED2402B4048E
:1008E0000050B9F582EB2402B4040050AF23234535
:0608F00082239008507302
:00000001FF
